{
  "address": "0xe7f1725E7734CE288F8367e1Bb143E90bb3F0512",
  "abi": [
    {
      "inputs": [
        {
          "internalType": "address",
          "name": "priceFeedAddress",
          "type": "address"
        }
      ],
      "stateMutability": "nonpayable",
      "type": "constructor"
    },
    {
      "inputs": [],
      "name": "FundMe__CallFailed",
      "type": "error"
    },
    {
      "inputs": [],
      "name": "FundMe__NotEnoughFunds",
      "type": "error"
    },
    {
      "inputs": [],
      "name": "FundMe__NotOwner",
      "type": "error"
    },
    {
      "inputs": [],
      "name": "MINIMUM_USD",
      "outputs": [
        {
          "internalType": "uint256",
          "name": "",
          "type": "uint256"
        }
      ],
      "stateMutability": "view",
      "type": "function"
    },
    {
      "inputs": [],
      "name": "cheaperWithdraw",
      "outputs": [],
      "stateMutability": "nonpayable",
      "type": "function"
    },
    {
      "inputs": [],
      "name": "fund",
      "outputs": [],
      "stateMutability": "payable",
      "type": "function"
    },
    {
      "inputs": [
        {
          "internalType": "address",
          "name": "_address",
          "type": "address"
        }
      ],
      "name": "getAddressToAmountFunded",
      "outputs": [
        {
          "internalType": "uint256",
          "name": "",
          "type": "uint256"
        }
      ],
      "stateMutability": "view",
      "type": "function"
    },
    {
      "inputs": [
        {
          "internalType": "uint256",
          "name": "_index",
          "type": "uint256"
        }
      ],
      "name": "getFunder",
      "outputs": [
        {
          "internalType": "address",
          "name": "",
          "type": "address"
        }
      ],
      "stateMutability": "view",
      "type": "function"
    },
    {
      "inputs": [],
      "name": "getOwner",
      "outputs": [
        {
          "internalType": "address",
          "name": "",
          "type": "address"
        }
      ],
      "stateMutability": "view",
      "type": "function"
    },
    {
      "inputs": [],
      "name": "getPriceFeed",
      "outputs": [
        {
          "internalType": "contract AggregatorV3Interface",
          "name": "",
          "type": "address"
        }
      ],
      "stateMutability": "view",
      "type": "function"
    },
    {
      "inputs": [],
      "name": "withdraw",
      "outputs": [],
      "stateMutability": "nonpayable",
      "type": "function"
    }
  ],
  "transactionHash": "0x91676e6737d40d082578b8f411c5f4a0933d716c5b42c0974acda8baffc166f2",
  "args": [
    "0x5FbDB2315678afecb367f032d93F642f64180aa3"
  ],
  "numDeployments": 1,
  "solcInputHash": "3ef3a65f0a3e7980847295aec84f8f27",
  "bytecode": "0x60a06040523480156200001157600080fd5b506040516200118138038062001181833981810160405281019062000037919062000120565b3373ffffffffffffffffffffffffffffffffffffffff1660808173ffffffffffffffffffffffffffffffffffffffff1660601b8152505080600260006101000a81548173ffffffffffffffffffffffffffffffffffffffff021916908373ffffffffffffffffffffffffffffffffffffffff1602179055505062000152565b600080fd5b600073ffffffffffffffffffffffffffffffffffffffff82169050919050565b6000620000e882620000bb565b9050919050565b620000fa81620000db565b81146200010657600080fd5b50565b6000815190506200011a81620000ef565b92915050565b600060208284031215620001395762000138620000b6565b5b6000620001498482850162000109565b91505092915050565b60805160601c6110026200017f600039600081816102140152818161044301526105c901526110026000f3fe60806040526004361061007b5760003560e01c80639e87a5cd1161004e5780639e87a5cd1461012a578063b60d428814610155578063be2693f01461015f578063d7b4750c146101765761007b565b80630343fb25146100805780633ccfd60b146100bd5780636b69a592146100d4578063893d20e8146100ff575b600080fd5b34801561008c57600080fd5b506100a760048036038101906100a29190610a79565b6101b3565b6040516100b49190610abf565b60405180910390f35b3480156100c957600080fd5b506100d26101fb565b005b3480156100e057600080fd5b506100e9610432565b6040516100f69190610abf565b60405180910390f35b34801561010b57600080fd5b5061011461043f565b6040516101219190610ae9565b60405180910390f35b34801561013657600080fd5b5061013f610467565b60405161014c9190610b63565b60405180910390f35b61015d610491565b005b34801561016b57600080fd5b506101746105b0565b005b34801561018257600080fd5b5061019d60048036038101906101989190610baa565b61084b565b6040516101aa9190610ae9565b60405180910390f35b60008060008373ffffffffffffffffffffffffffffffffffffffff1673ffffffffffffffffffffffffffffffffffffffff168152602001908152602001600020549050919050565b3373ffffffffffffffffffffffffffffffffffffffff167f000000000000000000000000000000000000000000000000000000000000000073ffffffffffffffffffffffffffffffffffffffff1614610280576040517f579610db00000000000000000000000000000000000000000000000000000000815260040160405180910390fd5b60005b60018054905081101561032b576000600182815481106102a6576102a5610bd7565b5b9060005260206000200160009054906101000a900473ffffffffffffffffffffffffffffffffffffffff16905060008060008373ffffffffffffffffffffffffffffffffffffffff1673ffffffffffffffffffffffffffffffffffffffff1681526020019081526020016000208190555050808061032390610c35565b915050610283565b50600067ffffffffffffffff81111561034757610346610c7e565b5b6040519080825280602002602001820160405280156103755781602001602082028036833780820191505090505b506001908051906020019061038b92919061096f565b5060003373ffffffffffffffffffffffffffffffffffffffff16476040516103b290610cde565b60006040518083038185875af1925050503d80600081146103ef576040519150601f19603f3d011682016040523d82523d6000602084013e6103f4565b606091505b505090508061042f576040517fa6139a6400000000000000000000000000000000000000000000000000000000815260040160405180910390fd5b50565b6802b5e3af16b188000081565b60007f0000000000000000000000000000000000000000000000000000000000000000905090565b6000600260009054906101000a900473ffffffffffffffffffffffffffffffffffffffff16905090565b6802b5e3af16b18800006104d0600260009054906101000a900473ffffffffffffffffffffffffffffffffffffffff163461089390919063ffffffff16565b1015610508576040517f964742c500000000000000000000000000000000000000000000000000000000815260040160405180910390fd5b6001339080600181540180825580915050600190039060005260206000200160009091909190916101000a81548173ffffffffffffffffffffffffffffffffffffffff021916908373ffffffffffffffffffffffffffffffffffffffff160217905550346000803373ffffffffffffffffffffffffffffffffffffffff1673ffffffffffffffffffffffffffffffffffffffff16815260200190815260200160002081905550565b3373ffffffffffffffffffffffffffffffffffffffff167f000000000000000000000000000000000000000000000000000000000000000073ffffffffffffffffffffffffffffffffffffffff1614610635576040517f579610db00000000000000000000000000000000000000000000000000000000815260040160405180910390fd5b600060018054806020026020016040519081016040528092919081815260200182805480156106b957602002820191906000526020600020905b8160009054906101000a900473ffffffffffffffffffffffffffffffffffffffff1673ffffffffffffffffffffffffffffffffffffffff168152602001906001019080831161066f575b5050505050905060005b81518110156107435760008282815181106106e1576106e0610bd7565b5b6020026020010151905060008060008373ffffffffffffffffffffffffffffffffffffffff1673ffffffffffffffffffffffffffffffffffffffff1681526020019081526020016000208190555050808061073b90610c35565b9150506106c3565b50600067ffffffffffffffff81111561075f5761075e610c7e565b5b60405190808252806020026020018201604052801561078d5781602001602082028036833780820191505090505b50600190805190602001906107a392919061096f565b5060003373ffffffffffffffffffffffffffffffffffffffff16476040516107ca90610cde565b60006040518083038185875af1925050503d8060008114610807576040519150601f19603f3d011682016040523d82523d6000602084013e61080c565b606091505b5050905080610847576040517fa6139a6400000000000000000000000000000000000000000000000000000000815260040160405180910390fd5b5050565b60006001828154811061086157610860610bd7565b5b9060005260206000200160009054906101000a900473ffffffffffffffffffffffffffffffffffffffff169050919050565b60008061089f836108cf565b90506000670de0b6b3a764000085836108b89190610cf3565b6108c29190610d7c565b9050809250505092915050565b6000808273ffffffffffffffffffffffffffffffffffffffff1663feaf968c6040518163ffffffff1660e01b815260040160a06040518083038186803b15801561091857600080fd5b505afa15801561092c573d6000803e3d6000fd5b505050506040513d601f19601f820116820180604052508101906109509190610e3a565b5050509150506402540be400816109679190610eb5565b915050919050565b8280548282559060005260206000209081019282156109e8579160200282015b828111156109e75782518260006101000a81548173ffffffffffffffffffffffffffffffffffffffff021916908373ffffffffffffffffffffffffffffffffffffffff1602179055509160200191906001019061098f565b5b5090506109f591906109f9565b5090565b5b80821115610a125760008160009055506001016109fa565b5090565b600080fd5b600073ffffffffffffffffffffffffffffffffffffffff82169050919050565b6000610a4682610a1b565b9050919050565b610a5681610a3b565b8114610a6157600080fd5b50565b600081359050610a7381610a4d565b92915050565b600060208284031215610a8f57610a8e610a16565b5b6000610a9d84828501610a64565b91505092915050565b6000819050919050565b610ab981610aa6565b82525050565b6000602082019050610ad46000830184610ab0565b92915050565b610ae381610a3b565b82525050565b6000602082019050610afe6000830184610ada565b92915050565b6000819050919050565b6000610b29610b24610b1f84610a1b565b610b04565b610a1b565b9050919050565b6000610b3b82610b0e565b9050919050565b6000610b4d82610b30565b9050919050565b610b5d81610b42565b82525050565b6000602082019050610b786000830184610b54565b92915050565b610b8781610aa6565b8114610b9257600080fd5b50565b600081359050610ba481610b7e565b92915050565b600060208284031215610bc057610bbf610a16565b5b6000610bce84828501610b95565b91505092915050565b7f4e487b7100000000000000000000000000000000000000000000000000000000600052603260045260246000fd5b7f4e487b7100000000000000000000000000000000000000000000000000000000600052601160045260246000fd5b6000610c4082610aa6565b91507fffffffffffffffffffffffffffffffffffffffffffffffffffffffffffffffff821415610c7357610c72610c06565b5b600182019050919050565b7f4e487b7100000000000000000000000000000000000000000000000000000000600052604160045260246000fd5b600081905092915050565b50565b6000610cc8600083610cad565b9150610cd382610cb8565b600082019050919050565b6000610ce982610cbb565b9150819050919050565b6000610cfe82610aa6565b9150610d0983610aa6565b9250817fffffffffffffffffffffffffffffffffffffffffffffffffffffffffffffffff0483118215151615610d4257610d41610c06565b5b828202905092915050565b7f4e487b7100000000000000000000000000000000000000000000000000000000600052601260045260246000fd5b6000610d8782610aa6565b9150610d9283610aa6565b925082610da257610da1610d4d565b5b828204905092915050565b600069ffffffffffffffffffff82169050919050565b610dcc81610dad565b8114610dd757600080fd5b50565b600081519050610de981610dc3565b92915050565b6000819050919050565b610e0281610def565b8114610e0d57600080fd5b50565b600081519050610e1f81610df9565b92915050565b600081519050610e3481610b7e565b92915050565b600080600080600060a08688031215610e5657610e55610a16565b5b6000610e6488828901610dda565b9550506020610e7588828901610e10565b9450506040610e8688828901610e25565b9350506060610e9788828901610e25565b9250506080610ea888828901610dda565b9150509295509295909350565b6000610ec082610def565b9150610ecb83610def565b9250827f7fffffffffffffffffffffffffffffffffffffffffffffffffffffffffffffff0482116000841360008413161615610f0a57610f09610c06565b5b817f80000000000000000000000000000000000000000000000000000000000000000583126000841260008413161615610f4757610f46610c06565b5b827f80000000000000000000000000000000000000000000000000000000000000000582126000841360008412161615610f8457610f83610c06565b5b827f7fffffffffffffffffffffffffffffffffffffffffffffffffffffffffffffff0582126000841260008412161615610fc157610fc0610c06565b5b82820290509291505056fea26469706673582212202eee59bde4a21d2876f08ef65b2f2c722d650365522f27f8653da43f7b88710d64736f6c63430008080033",
  "devdoc": {
    "kind": "dev",
    "methods": {},
    "version": 1
  },
  "userdoc": {
    "kind": "user",
    "methods": {},
    "version": 1
  },
  "storageLayout": {
    "storage": [
      {
        "astId": 61,
        "contract": "contracts/FundMe.sol:FundMe",
        "label": "s_addressToAmountFunded",
        "offset": 0,
        "slot": "0",
        "type": "t_mapping(t_address,t_uint256)"
      },
      {
        "astId": 64,
        "contract": "contracts/FundMe.sol:FundMe",
        "label": "s_funders",
        "offset": 0,
        "slot": "1",
        "type": "t_array(t_address)dyn_storage"
      },
      {
        "astId": 69,
        "contract": "contracts/FundMe.sol:FundMe",
        "label": "s_priceFeed",
        "offset": 0,
        "slot": "2",
        "type": "t_contract(AggregatorV3Interface)45"
      }
    ],
    "types": {
      "t_address": {
        "encoding": "inplace",
        "label": "address",
        "numberOfBytes": "20"
      },
      "t_array(t_address)dyn_storage": {
        "base": "t_address",
        "encoding": "dynamic_array",
        "label": "address[]",
        "numberOfBytes": "32"
      },
      "t_contract(AggregatorV3Interface)45": {
        "encoding": "inplace",
        "label": "contract AggregatorV3Interface",
        "numberOfBytes": "20"
      },
      "t_mapping(t_address,t_uint256)": {
        "encoding": "mapping",
        "key": "t_address",
        "label": "mapping(address => uint256)",
        "numberOfBytes": "32",
        "value": "t_uint256"
      },
      "t_uint256": {
        "encoding": "inplace",
        "label": "uint256",
        "numberOfBytes": "32"
      }
    }
  }
}